:040000030000006F8A
:100378000000000803090000000000080108000050
:100388000000000800050000000000080108000047
:100398000000000803050000000000080108000034
:1003A8000000000801050000000000080108000026
:1003B8000000000802050000000000080108000015
:1003C80000000008020A0000000000080108000000
:1003D80000000008020E00000000000801080000EC
:1003E80000000008030100000000000801080000E8
:1003F80000000008030200000000000801000000DF
:1004080000000008030900000000000801080000BF
:1004180000000008000500000000000801080000B6
:1004280000000008010800000000000803050000A3
:100438000000000801080000000000080108000092
:100448000000000801080000000000080105000085
:10045800000000080205000000000008020A000071
:1004680000000008020E0000000000080301000060
:10047800000000080302000000000008010000005E
:0804880000000000000000006C
:00000001FF
