:04000003000003E80E
:101F400000000001010707000000000E0107070460
:101F50000000000C010708080000000F0107070837
:101F60000000000C01070808000000070107070C2B
:101F70000000000C01070808000000050107080028
:101F80000000000C01070804000000000000000031
:102EE00000000000000000000000000000000000E2
:102EF00000000000000000000000000000000000D2
:102F000000000000000000000000000000000000C1
:082F10000000000000000000B9
:00000001FF
