:04000003000004579E
:1022B80000000008000400000000000803090000F6
:1022C80000000008000500000000000803050000E9
:1022D80000000008000800000000000803090000D2
:1022E80000000008000500000000000803050000C9
:1022F800000000080004000000000008000C0000B6
:1023080000000008030900000000000800050000A4
:102318000000000803050000000000080008000095
:102328000000000803090000000000080005000084
:10233800000000080305000000000008000C000071
:102348000000000800040000000000080309000065
:102358000000000800050000000000080305000058
:102368000000000800080000000000080309000041
:102378000000000800050000000000080305000038
:10238800000000080104000000000008010400002B
:08239800000000080104000030
:00000001FF
