:0400000300000000F9
:1000000000000001000F0A000000000D01020C00BA
:1000100000000001010103000000000C01040500C4
:100020000000000101050E000000000901050E0896
:100030000000000101050E040000000901050E0882
:100040000000000101070700000000020109000094
:080050000000000000000000A8
:081F4000010001000100010095
:082260000F0F0F0F0F0F0F0EFF
:08258000000000000000000053
:0828A000000000000000000030
:102BC0000F000F000F000F00000F000F000F000E8E
:082BD0000102040801020408DF
:082EE0000000000101030408D9
:083200000000000100000000C5
:00000001FF
